:020000040800F2
:1000000000500020090500084D0500084D050008B6
:100010004D0500084D0500084D05000800000000D2
:10002000000000000000000000000000B90300080C
:100030004D050008000000004D0500089D03000864
:100040004D0500084D0500084D0500084D05000848
:100050004D0500084D0500084D0500084D05000838
:100060004D0500084D0500084D0500084D05000828
:100070004D0500084D0500084D0500084D05000818
:100080004D0500084D0500084D0500084D05000808
:100090004D0500084D0500084D0500084D050008F8
:1000A0004D0500084D0500084D0500084D050008E8
:1000B0004D0500084D0500084D0500084D050008D8
:1000C0004D0500084D0500084D0500084D050008C8
:1000D0004D0500084D0500084D0500084D050008B8
:1000E0004D0500084D0500084D0500080000000002
:1000F0000000000000000000000000000000000000
:0C01000000000000000000005FF808F1A3
:10010C0010B5054C237833B9044B13B10448AFF345
:10011C0000800123237010BD280400200000000083
:10012C000C0100080C4B43B10C4810B50C49AFF353
:10013C0000800C48036823B910BD0A48036833B922
:10014C007047094B002BF7D0BDE810401847064B01
:10015C00002BF5D0184700BF000000000C01000870
:10016C002C040020280400200000000080B58EB074
:10017C0000AF194B10229A61184B4FF440125A6081
:10018C0007F1300300221A605A60032387F83030DD
:10019C000A2387F831303B4630220021184600F004
:1001AC00F9F94FF480737B600D4BFB604FF4807357
:1001BC007B610C4BFB614FF480737B620A4BFB62DF
:1001CC003A4607F130031146184600F039F800BFE3
:1001DC003837BD4680BD00BF001002400010014002
:1001EC00F9010008150200083102000880B483B040
:1001FC0000AF47F230537B6002E07B68013B7B60D1
:10020C007B68002BF9D1F4E780B483B000AF0023F6
:10021C007B6002E07B6801337B607B68B3F5FA6F2F
:10022C00F8D3F4E780B483B000AF4FF0FF337B60BA
:10023C0002E07B68013B7B607B68002BF9D1F4E723
:10024C0080B584B000AF786039604E4A7B6813602B
:10025C004C4B1B683A685A604A4B1B6800229A70D8
:10026C000023FB735CE0FB7B002B24D0454B1B680D
:10027C005A68FB7B1B011A44424B1B685968FB7B79
:10028C0003F18053013B1B010B4499683D4B1B68E8
:10029C005868FB7B03F18053013B1B0103445B68F3
:1002AC00CB1A9360374B1B685A68FB7B1B011344BA
:1002BC0000221A700FE0334B1B685A68FB7B1B0142
:1002CC001344314A9A602F4B1B685A68FB7B1B0105
:1002DC00134402221A702B4B1B685A68FB7B1B01C0
:1002EC0013449B681946274B1B685A68FB7B1B0100
:1002FC001344DB684B61234B1B685A68FB7B1B0167
:10030C0013445B68FF2B08D81E4B1B685A68FB7B99
:10031C001B0113444FF480725A60FB7B0133FB7357
:10032C00184B1B681B78FA7B9A429CD3174B0622FE
:10033C001A60164A134B1B685B7819464FF4FA5334
:10034C0003FB01F35360114A104B5B6893600F4A37
:10035C000E4B1B6843F0010313600A4B1B685B6870
:10036C009B6883F309880223BB60BB6883F3148802
:10037C00044B1B685B68DB68984700BF1037BD46B1
:10038C0080BD00BF44040020E04E002010E000E0DF
:10039C0080B400AF044A044B5B6A43F400435362DD
:1003AC0000BFBD4680BC704700ED00E080B483B058
:1003BC0000AFEFF309837B604F4B1B685A684E4BC1
:1003CC001B689B781B0113441B78042B27D801A2B4
:1003DC0052F823F02B0400082B040008F503000846
:1003EC002B0400082B040008434B1B685A68424B33
:1003FC001B689B781B0113447A689A603E4B1B6800
:10040C005A683D4B1B689B781B01134401221A70E0
:10041C007B68203B7B607B68A3E8F00F00BF364B0A
:10042C001B689A780132D2B29A709A78324B1B6858
:10043C001B789A4203D3304B1B6800229A702E4BC8
:10044C001B685A682C4B1B689B781B0113441B7848
:10045C00042B4CD801A252F823F000BF7D040008F5
:10046C00AF040008F7040008F7040008F7040008BC
:10047C00214B1B685A68204B1B689B781B0113444B
:10048C0002221A701C4B1B685A681B4B1B689B780A
:10049C001B0113449B68043B7B607B6883F30988D6
:1004AC0026E0154B1B685A68134B1B689B781B0185
:1004BC0013449B6883F309880F4B1B685A680E4BD7
:1004CC001B689B781B01134402221A700A4B1B6891
:1004DC005A68094B1B689B781B0113449B68203B93
:1004EC007B607B68B3E8F00F00E000BF00BF00BF8B
:1004FC000C37BD4680BC704744040020002103E04B
:10050C000A4B5B584350043109480A4B42189A4233
:10051C00F6D3094A02E0002342F8043B074B9A4207
:10052C00F9D300F00FF8FFF721FE704764070008BD
:10053C000C0100202804002028040020480400207E
:10054C00FEE7000070B50F4E0F4D761BB61018BFAE
:10055C00002405D0013455F8043B9847A642F9D144
:10056C000A4E0B4D00F0E6F8761BB61018BF0024AF
:10057C0006D0013455F8043B9847A642F9D170BD1A
:10058C0070BD00BF58070008580700086007000836
:10059C005807000870B4860746D0541E002A41D074
:1005AC00CAB2034602E014F1FF343BD303F8012B2B
:1005BC009D07F8D1032C2ED9CDB245EA05250F2C79
:1005CC0045EA054519D9264603F11002103E0F2EB7
:1005DC0042F8105C42F80C5C42F8085C42F8045C8F
:1005EC0002F11002F2D8A4F1100222F00F0204F072
:1005FC000F041032032C13440DD91E462246043A24
:10060C00032A46F8045BFAD8221F22F003020432B4
:10061C00134404F003042CB1C9B21C4403F8011BAD
:10062C009C42FBD170BC704714460346C2E700BF26
:10063C00024B13B1024800F005B8704700000000EF
:10064C005D060008002301461A46184600F01AB849
:10065C0038B50A4C0A4D641BA4100AD004F180432F
:10066C00013B05EB8305013C55F804399847002CF8
:10067C00F9D1BDE8384000F063B800BF640700084A
:10068C00600700082DE9F047274C07462668884686
:10069C00D6F8484192469946002C3CD065681F2DEF
:1006AC001ADC05F1010E7FB1012004EB8503C3F8C0
:1006BC0088A0D4F8881100FA05F21143022FC4F86F
:1006CC008811C3F8089120D00235C4F804E000204A
:1006DC0044F82580BDE8F087144B0BB34FF4C87079
:1006EC00AFF300800446D8B10020D6F848314FF063
:1006FC00010E606023600546C6F84841C4F88801C5
:10070C00C4F88C01002FDFD0CEE7D4F88C311A431B
:10071C00C4F88C21D8E706F5A674C6F84841BDE7A5
:10072C004FF0FF30BDE8F0873C07000800000000E8
:10073C0000000020F8B500BFF8BC08BC9E4670470E
:0C074C00F8B500BFF8BC08BC9E46704722
:080758003D0600083101000814
:040760000D0100087F
:1007640000000000EC02002054030020BC03002021
:100774000000000000000000000000000000000075
:100784000000000000000000000000000000000065
:100794000000000000000000000000000000000055
:1007A4000000000000000000000000000000000045
:1007B4000000000000000000000000000000000035
:1007C4000000000000000000000000000000000025
:1007D4000000000000000000000000000000000015
:1007E4000000000000000000000000000000000005
:1007F40000000000000000000000000000000000F5
:1008040000000000000000000100000000000000E3
:100814000E33CDAB34126DE6ECDE05000B000000A8
:1008240000000000000000000000000000000000C4
:1008340000000000000000000000000000000000B4
:1008440000000000000000000000000000000000A4
:100854000000000000000000000000000000000094
:0400000508000509E1
:00000001FF
